:100000000C9434000C9451000C9451000C94510049
:100010000C9451000C9451000C9451000C9451001C
:100020000C9451000C9451000C9451000C9451000C
:100030000C9451000C9451000C9451000C945100FC
:100040000C9451000C9451000C9451000C945100EC
:100050000C9451000C9451000C9451000C945100DC
:100060000C9451000C94510011241FBECFEFD4E02A
:10007000DEBFCDBF14E0A0E0B1E0E4E2F3E102C0F6
:1000800005900D92A639B107D9F714E0A6E9B4E0BE
:1000900001C01D92AC39B107E1F70E9453050C94E1
:1000A00090090C940000E82FB4EAA0E254E8F0E1D3
:1000B000B093BC008091BC0087FFFCCFA093BB0035
:1000C0005093BC008091BC0087FFFCCF8091B900A9
:1000D000887F883119F040E0883209F441E0E093EC
:1000E000BB005093BC008091BC0087FFFCCF809187
:1000F000B900887F883119F020E0883209F421E0C6
:100100007093BB005093BC008091BC0087FFFCCF74
:100110008091B900887F883119F030E0883209F485
:1001200031E06093BB005093BC008091BC0087FF1E
:10013000FCCF8091B900887F883119F090E0883237
:1001400009F491E024232323F093BC00292309F42C
:10015000AFCF08951F93CF93DF9360914D047091BB
:100160004E046E7F80E00E945300CFE4D4E011E0A3
:1001700069917991812F0E9453001F5F1231C1F75D
:1001800060914D0470914E0480E00E945300DF9115
:10019000CF911F9108951F93182F8A3019F48DE085
:1001A0000E94CB008091C00085FFFCCF1093C60059
:1001B00080E090E01F9108958091C00087FFFCCF00
:1001C0008091C60008959C0181E006C085BB16BCE5
:1001D000A89BFECF2050314091E021303907B0F785
:1001E00081E085BB822F819586BDA89BFECF0895B7
:1001F000CF93DF93EC0105C088EE93E00E94E3000B
:1002000021972097C9F7DF91CF91089584EA8093D1
:10021000BC008091BC0087FFFCCF089580E18093F3
:10022000BC0008958091BC0087FFFCCF08958093A7
:10023000BB0084E88093BC008091BC0087FFFCCFAA
:100240009091B900987F983111F481E0089580E091
:10025000983209F481E00895882329F08091BC0048
:100260008F70806C04C08091BC008F708068809318
:10027000BC008091BC0087FFFCCF8091BB0008953B
:10028000DF92EF92FF920F931F93CF93DF93D82EBD
:1002900020E030E000E025C0790184E0EE0CFF1C96
:1002A0008A95E1F78091C00087FFFCCF1091C600CE
:1002B000C12FD0E0CE010E948C06812F80538A305E
:1002C00020F49E012053304009C01156163018F01A
:1002D00020E030E008C09E01215630402E293F2901
:1002E0000F5F0D15C8F2C901DF91CF911F910F91DA
:1002F000FF90EF90DF900895382F64EA50E244E8D1
:100300006093BC008091BC0087FFFCCF5093BB0082
:100310004093BC008091BC0087FFFCCF8091B90066
:10032000887F883119F020E0883209F421E0309389
:10033000BB004093BC008091BC0087FFFCCF809144
:10034000B900887F883119F090E0883209F491E093
:100350009223B1F284EA8093BC008091BC0087FFB5
:10036000FCCF81E28093BB0084E88093BC00809145
:10037000BC0087FFFCCF8091B9008091B900803428
:10038000C9F48091BC008F70806C8093BC00809118
:10039000BC0087FFFCCF3091BB008091BC008F7008
:1003A000806C8093BC008091BC0087FFFCCF2091C3
:1003B000BB000DC000D080E091E0EDB7FEB79283A6
:1003C00081830E94770630E020E00F900F9080E15B
:1003D0008093BC00932F80E030E0282B392BC9019B
:1003E00008950F931F938C0182E00E947C01BC0151
:1003F0007D7F82E00E94530082E00E947C01BC016C
:1004000060707E7F025B1240602B712B82E00E9445
:10041000530082E00E947C01BC01726082E00E9475
:10042000530083E10E947C01182F81E290E00E943A
:100430008C0615FFF6CF1F910F910895CF92DF9292
:10044000EF92FF920F931F93F82E83E00E947C019E
:100450005FE7C52E58EFD52EC822D92201E714E058
:100460000F0D111DF801808190E08F7090709695AE
:10047000982F882797958795C82AD92A8EE00E94B9
:100480007C013FEFE32E3FE0F32EE822F922F80152
:10049000808190E0807F9070982F8827E82AF92A41
:1004A00083E0B6010E9453008EE0B7010E94530022
:1004B0001F910F91FF90EF90DF90CF90089582E110
:1004C0000E947C0180709E7F892F869590E0089520
:1004D000CF93DF9383E10E947C01EC0100D000D038
:1004E0008EE091E0ADB7BEB712969C938E931197B4
:1004F0001496DC93CE9313970E9477069E01220FE9
:10050000232F221F330B31952E543D4F00D0EDB7D2
:10051000FEB7319687E291E0ADB7BEB712969C93D5
:100520008E931197C9016AE070E00E9445097383B8
:100530006283C9016AE070E00E9445099583848363
:100540000E947706EDB7FEB736960FB6F894FEBF59
:100550000FBEEDBFC5FF0AC000D08FE391E0ADB77D
:10056000BEB712969C938E93119707C000D085E575
:1005700091E0EDB7FEB7928381830E9477060F90DA
:100580000F90C4FF0AC000D08DE691E0ADB7BEB7B2
:1005900012969C938E93119707C000D08AE791E042
:1005A000EDB7FEB7928381830E9477060F900F907C
:1005B000C3FF0AC000D08DE891E0ADB7BEB7129678
:1005C0009C938E93119707C000D087E991E0EDB717
:1005D000FEB7928381830E9477060F900F90DF9180
:1005E000CF9108951F93CF93DF9384E690E00E940C
:1005F000F8000E94AA00CFE9D1E083E10E947C01CB
:10060000182F00D000D0EDB7FEB7D283C18383830B
:1006100094830E9477060F900F900F900F908AE0BE
:1006200090E00E94F80015FFE8CFDF91CF911F9175
:1006300008958FEF84B987B987E894E0909399047F
:10064000809398041092C50087E68093C40088E1E7
:100650008093C10086E08093C20082E08093C00056
:1006600085BDECEBF0E0108280E48093B8008081DF
:100670008F7B80838081846080830E94F202089552
:100680000F931F93CF93DF93C0E0D0E007EB11E00F
:100690008C2F0E947C0100D000D000D0EDB7FEB7B7
:1006A0003196ADB7BEB712961C930E931197D383B4
:1006B000C283958384830E94770621968DB79EB767
:1006C00006960FB6F8949EBF0FBE8DBFCD31D105F3
:1006D000F9F6DF91CF911F910F910895EF92FF925C
:1006E0000F931F9300D087EC91E0ADB7BEB7129681
:1006F0009C938E9311970E9477060F900F9082E043
:100700000E944001082F10E000D000D08DEE91E053
:10071000EDB7FEB792838183148303830E9477062B
:100720000F900F9083E092E0ADB7BEB712969C9306
:100730008E9311970E9477060F900F9084E00E948D
:100740004001F82EE92E00D000D0EDB7FEB731966B
:1007500087E292E0ADB7BEB712969C938E93119745
:10076000F282E3820E947706000F111F035B1B4F8A
:10077000F801F082E1820F900F900F900F901F917F
:100780000F91FF90EF9008950F931F938C0181E0DC
:100790000E947C01BC01626081E00E94530083E002
:1007A0000E947C01BC017F7B83E00E9453008BE0B0
:1007B0000E947C01BC016A7F7F778BE00E9453001E
:1007C000C8010E94F10100D08BE392E0ADB7BEB743
:1007D00012969C938E9311970E9477060F900F901C
:1007E00082E10E947C0100D000D0EDB7FEB73196C7
:1007F00029E432E0ADB7BEB712963C932E93119721
:1008000080709E7F892F8695828313820E9477064F
:100810000F900F900F900F908BE00E947C01BC0115
:10082000656070688BE00E945300C8010E94F1016E
:1008300000D086E592E0EDB7FEB7928381830E94F7
:1008400077060F900F9082E10E947C0100D000D0CB
:10085000EDB7FEB7319625E632E0ADB7BEB71296DA
:100860003C932E9311979695928313820E9477065C
:100870000F900F900F900F908BE00E947C01BC01B5
:100880006A7F7F7770688BE00E945300C8010E94E6
:10089000F10181E00E947C01BC016D7F81E00E943A
:1008A000530000D082E792E0EDB7FEB792838183D8
:1008B0000E9477060F900F901F910F9108950F934C
:1008C0001F9381E00E947C01BC01626081E00E9474
:1008D000530082E00E947C01BC017D7F82E00E9487
:1008E000530083E00E947C01BC017F7B83E00E9477
:1008F00053008AE00E947C01BC0168608AE00E948B
:10090000530081E10E947C01BC01737C706281E133
:100910000E94530000D08AE892E0ADB7BEB71296AD
:100920009C938E9311970E9477060F900F9083E00F
:100930000E947C01BC01706483E00E94530083E04C
:100940000E947C01BC01607877746560706A83E006
:100950000E94530083E10E947C01182F8EE290E0F8
:100960000E948C0615FFF6CF83E10E947C0184FF74
:100970000CC000D08DE992E0EDB7FEB79283818381
:100980000E9477060F900F9050C000D08BEA92E043
:10099000ADB7BEB712969C938E9311970E947706BF
:1009A0000F900F9083E10E947C018C01000F012FBA
:1009B000001F110B11950E541D4F00D000D000D018
:1009C000EDB7FEB731968AEB92E0ADB7BEB712969F
:1009D0009C938E931197C8016AE070E00E944509CC
:1009E00073836283C8016AE070E00E9445099583C1
:1009F00084830E947706EDB7FEB736960FB6F8945B
:100A0000FEBF0FBEEDBF60916F047091700481E175
:100A10000E945300C8010E94C40381E00E947C012F
:100A2000BC016D7F81E00E9453001F910F910895DA
:100A3000EF92FF920F931F93CF93DF9383ED92E09A
:100A40000E9493060DE414E0C0E0D0E0F7EBEF2E37
:100A5000F1E0FF2E00D000D000D0EDB7FEB7319608
:100A6000ADB7BEB71296FC92EE921197D383C283B4
:100A7000D8018D919D918D01958384830E94770685
:100A800021968DB79EB706960FB6F8949EBF0FBEFF
:100A90008DBFC231D105F1F6DF91CF911F910F913A
:100AA000FF90EF9008952F923F924F925F926F9236
:100AB0007F928F929F92AF92BF92CF92DF92EF92EE
:100AC000FF920F931F93CF93DF930E94190305E1C9
:100AD00037E8232E33E0332E28E9422E23E0522E2E
:100AE00099EA692E93E0792E8AEB882E83E0982E7E
:100AF00019ECA12E13E0B12EBFE3CB2EB4E0DB2E18
:100B0000A4E3EA2EA4E0FA2EC5E2D4E000D0EBEE96
:100B1000F2E0ADB7BEB71296FC93EE9311970E9428
:100B20007706EAE0F3E0ADB7BEB71296FC93EE931A
:100B300011970E947706E0E2F3E0ADB7BEB71296D8
:100B4000FC93EE9311970E947706E6E3F3E0ADB7CE
:100B5000BEB71296FC93EE9311970E947706EAE4D3
:100B6000F3E0ADB7BEB71296FC93EE9311970E94D7
:100B70007706E7E6F3E0ADB7BEB71296FC93EE93C7
:100B800011970E947706E6E7F3E0ADB7BEB712967D
:100B9000FC93EE9311970E947706ADB7BEB71296FD
:100BA0003C922E9211970E947706EDB7FEB75282C3
:100BB00041820E947706ADB7BEB712967C926E92C4
:100BC00011970E947706EDB7FEB7928281820E944C
:100BD0007706ADB7BEB71296BC92AE9211970E943F
:100BE00077060F900F908091C00087FFFCCF809117
:100BF000C600813359F489EE93E00E9493060E9467
:100C0000AA0081E094E00E94930680CF823319F419
:100C10000E9418057BCF833319F40E946E0376CFB0
:100C2000843339F489E094E00E9493060E944003E3
:100C30006DCF853319F40E945F0468CF863349F481
:100C400085E194E00E9493068DEC93E00E94F1010F
:100C50005DCF873319F40E94680258CF883329F496
:100C6000053168F4102F1F5F06C08933A9F40023F3
:100C700031F0102F1150802F0E941E02012F00D042
:100C800000D0EDB7FEB73196ADB7BEB71296DC9384
:100C9000CE931197028323C0813671F40E945F02C4
:100CA00000D000D0EDB7FEB73196ADB7BEB7129603
:100CB000FC92EE92119712C0823629F48DEC93E0EB
:100CC0000E94C40323CF00D000D0EDB7FEB7319609
:100CD000ADB7BEB71296DC92CE9211978283138283
:100CE0000E9477060F900F900F900F900FCFA0E00B
:100CF000B0E0EDE7F6E00C946909FE0135966191EC
:100D000071918091980490919904AF010E94C80656
:100D10002096E2E00C948509609198047091990402
:100D20000E94BB0808950F931F93CF93DF938C010C
:100D3000E0919804F0919904838181FF21C0C0E083
:100D4000D0E00DC0E0919804F091990420853185A0
:100D5000BF01F9010995892B11F0CFEFDFEFF80101
:100D600081918F01882371F7E0919804F0919904A3
:100D7000208531858AE0BF01F9010995892B11F0A1
:100D8000CFEFDFEFCE01DF91CF911F910F9108954B
:100D9000ABE0B0E0EEECF6E00C9459093C012B011D
:100DA0005A01FC0117821682838181FD03C06FEF17
:100DB0007FEFC6C19AE0892E1E010894211C311CC8
:100DC000F3012381F20123FD859123FF81912F01FE
:100DD000882309F4B2C1853239F423FD859123FFBC
:100DE00081912F01853229F490E0B3010E94BB0864
:100DF000E7CF982FFF24EE249924FFE1FF15D0F0D0
:100E00009B3269F09C3228F4903259F0933291F47D
:100E10000EC09D3249F0903369F441E024C052E0A5
:100E2000F52A84E0F82A28C098E0F92A25C0E0E1F4
:100E3000FE2A22C0F7FC29C0892F80538A3070F423
:100E4000F6FE05C0989C902C1124980E15C0E89CC5
:100E5000E02C1124E80EF0E2FF2A0EC09E3229F4A5
:100E6000F6FC6BC140E4F42A07C09C3619F450E844
:100E7000F52A02C0983649F4F20123FD959123FF2B
:100E800091912F01992309F0B8CF892F8554833090
:100E900018F08052833038F444E050E0A40EB51EC0
:100EA0005FE359830FC0933631F0933779F0933570
:100EB00009F056C020C0F5018081898342E050E0EE
:100EC000A40EB51E610101E010E012C0F501C08062
:100ED000D180F6FC03C06FEF7FEF02C0692D70E098
:100EE00042E050E0A40EB51EC6010E94B0088C017D
:100EF0005FE7F52214C0F501C080D180F6FC03C085
:100F00006FEF7FEF02C0692D70E042E050E0A40E69
:100F1000B51EC6010E94A5088C0150E8F52AF3FE13
:100F200007C01AC080E290E0B3010E94BB08EA94B7
:100F30008E2D90E008171907A8F30EC0F601F7FCF4
:100F40008591F7FE81916F0190E0B3010E94BB088B
:100F5000E110EA94015010400115110579F7EAC03B
:100F6000943611F0993669F5F7FE08C0F501208135
:100F700031814281538184E090E00AC0F501808193
:100F800091819C01442737FD4095542F82E090E0E9
:100F9000A80EB91E9FE6F92257FF09C0509540954B
:100FA000309521953F4F4F4F5F4FE0E8FE2ACA0131
:100FB000B901A1012AE030E00E94E708D82ED2183A
:100FC00040C0953729F41F2D1F7E2AE030E01DC058
:100FD0001F2D197F9F3661F0903720F4983509F066
:100FE000ACC00FC0903739F0983709F0A6C004C0E4
:100FF00028E030E00AC0106114FD146020E130E008
:1010000004C014FD166020E132E017FF08C0F501AE
:10101000608171818281938144E050E008C0F501D4
:1010200080819181BC0180E090E042E050E0A40E1C
:10103000B51EA1010E94E708D82ED2188FE7F82E1E
:10104000F122F6FE0BC05EEFF522D91438F4F4FE5F
:1010500007C0F2FC05C08FEEF82202C01D2D01C0B2
:10106000192DF4FE0DC0FE01ED0DF11D80818033C0
:1010700019F499EEF92208C01F5FF2FE05C003C003
:101080008F2D867809F01F5F0F2DF3FC14C0F0FE42
:101090000FC01E1510F09D2C0BC09D2C9E0C911A9C
:1010A0001E2D06C080E290E0B3010E94BB081F5FC6
:1010B0001E15C0F304C01E1510F4E11A01C0EE2481
:1010C00004FF0FC080E390E0B3010E94BB0802FF61
:1010D0001DC001FD03C088E790E00EC088E590E0E8
:1010E0000BC0802F867891F001FF02C08BE201C017
:1010F00080E2F7FC8DE290E0B3010E94BB0806C0DD
:1011000080E390E0B3010E94BB089A94D914C0F325
:10111000DA94F101ED0DF11D808190E0B3010E94A0
:10112000BB08DD20A9F706C080E290E0B3010E9471
:10113000BB08EA94EE20C1F743CEF30166817781C4
:10114000CB012B96E2E10C947509FC0105906150EE
:1011500070400110D8F7809590958E0F9F1F0895CD
:10116000FC016150704001900110D8F78095909576
:101170008E0F9F1F08950F931F93CF93DF938C01C2
:10118000EB018B8181FF1BC082FF0DC02E813F814F
:101190008C819D812817390764F4E881F9810193D6
:1011A000F983E88306C0E885F985802F0995892BA6
:1011B00031F48E819F8101969F838E8302C00FEF51
:1011C0001FEFC801DF91CF911F910F910895FA0190
:1011D000AA27283051F1203181F1E8946F936E7F76
:1011E0006E5F7F4F8F4F9F4FAF4FB1E03ED0B4E067
:1011F0003CD0670F781F891F9A1FA11D680F791FA8
:101200008A1F911DA11D6A0F711D811D911DA11DB8
:1012100020D009F468943F912AE0269F11243019C8
:10122000305D3193DEF6CF010895462F4770405D63
:101230004193B3E00FD0C9F7F6CF462F4F70405D12
:101240004A3318F0495D31FD4052419302D0A9F76D
:10125000EACFB4E0A6959795879577956795BA9567
:10126000C9F700976105710508959B01AC010A2E2D
:1012700006945795479537952795BA95C9F7620F04
:10128000731F841F951FA01D0895AA1BBB1B51E14E
:1012900007C0AA1FBB1FA617B70710F0A61BB70BE6
:1012A000881F991F5A95A9F780959095BC01CD018B
:1012B00008952F923F924F925F926F927F928F92FA
:1012C0009F92AF92BF92CF92DF92EF92FF920F93D5
:1012D0001F93CF93DF93CDB7DEB7CA1BDB0B0FB6DF
:1012E000F894DEBF0FBECDBF09942A88398848889C
:1012F0005F846E847D848C849B84AA84B984C88432
:10130000DF80EE80FD800C811B81AA81B981CE0F28
:10131000D11D0FB6F894DEBF0FBECDBFED0108950D
:04132000F894FFCF6F
:101324000A0941636B206661696C656421000A0ADD
:1013340041523130303020737461747573203A2017
:10134400307825303458000A4368616E6E656C202D
:101354003A20253032642E253031644D487A0020FD
:10136400285365656B2F54756E6520436F6D706CE3
:10137400657465290020285365656B2F54756E6567
:1013840020496E636F6D706C657465290020285365
:1013940065656B204661696C290020285365656B7F
:1013A400205375636365737366756C290020285335
:1013B400746572656F290020284D6F6E6F29000ACD
:1013C40041523130303020737461747573203A2087
:1013D400307825303458003078252E32583A203071
:1013E40078252E34580A000A0A4172726179204124
:1013F4006464726573732028322064696769742099
:101404006865782076616C7565293A20000A417216
:1014140072617920416464726573732069733A2040
:101424002578000A0A41727261792076616C7565CB
:10143400202834206469676974206865782076619F
:101444006C7565293A20000A4172726179207661CF
:101454006C75652069733A202578000A4C6F7720F3
:10146400636F6D706C657465000A52535349203183
:10147400203D202564000A4869676820636F6D7009
:101484006C657465000A525353492032203D20256F
:1014940064000A4C6F772F48692074756E696E6713
:1014A40020636F6D706C657465000A0A4265676934
:1014B4006E20736561726368696E673A000A5365EA
:1014C400656B206661696C656421000A5365656B10
:1014D400207375636365737321000A4E6F77206F01
:1014E4006E206368616E6E656C2025642E25644DE4
:1014F400487A000A0A417272617920706F736974C4
:10150400696F6E3A2076616C7565000A0A2D2D2D7F
:101514002D41523130303020436F6E6669677572E9
:101524006174696F6E2D2D2D2D000A3129205365AC
:101534006E642061727261792076616C75657300E6
:101544000A322920526561642061727261792076C1
:10155400616C756573000A332920536574206172C8
:101564007261792076616C7565000A3429205265B0
:10157400616420416C6C20526567697374657220E4
:1015840076616C756573000A352920426567696E5A
:10159400205365656B000A36292054756E652074E6
:1015A4006F2039372E33000A372920436865636B6F
:1015B40020537461747573000A3829205261697369
:1015C4006520766F6C756D65000A3929204C6F773C
:1015D400657220766F6C756D65000A612920436819
:1015E40065636B2052535349000A62292053706586
:1015F4006369616C2074756E652068692F6C6F7700
:1016040020746F2039372E33000A0A0953656E643B
:10161400696E672041727261792056616C756573D9
:10162400000A0909446F6E65000A0A09526561647B
:1016340020416C6C000A092054756E6520746F207B
:1016440039372E33000A566F6C756D65203D2025A1
:10165400303264000A52535349203D202564000A65
:101664000A43686F696365203D20256300FFFF1509
:101674005BB9F412800004AA280044E71E41717D7E
:1016840000C682554F0C9745B82DFC9780A1046A7B
:10169400DF0FCFDFEFFFEEFEEDFDFBFAF9F7E6F625
:1016A400E5F5E3F3F2F1F00000000200000000CBE6
:0616B40000000000000030
:00000001FF
