:100000002AC043C042C041C040C03FC03EC03DC006
:100010003CC03BC03AC039C038C037C036C035C01C
:1000200034C033C032C04120000042C80000461C2A
:1000300040004CBEBC205A0E1BCA749DC5AE3DCCC0
:10004000CCCD3C23D70A38D1B717322BCC7724E656
:1000500095950A4FB11F11241FBECFE5D4E0DEBF36
:10006000CDBF13E0A0E6B0E0E0EAF7E102C0059002
:100070000D92A630B107D9F713E0A6E0B3E001C0B6
:100080001D92A830B107E1F79EC2BACF00000895D3
:100090000F931F93CF93DF938C01C0E0D0E0C8177C
:1000A000D90728F4F3DF2196C017D107D8F3DF91E1
:1000B000CF911F910F91089583E794E0CC9797FF1C
:1000C000FDCF08950F931F93CF93DF938C01C0E072
:1000D000D0E0C817D90728F4EFDF2196C017D10761
:1000E000D8F3DF91CF911F910F910895982FC29867
:1000F000662311F4C09801C0C09A9FB9779BFECFC8
:10010000C29A0895CF93DF9360E08CE0EFDF60E068
:1001100080E8ECDFC7EFD1E061E080E0E7DF219726
:10012000D7FFFACFDF91CF910895C498AFDFC49A7B
:10013000C298ACDFC29AAADF60E081E2D7DF60E05C
:1001400088ECD4DF60E086E0D1DF60E083E1CEDFE1
:1001500060E080E2CBDFD6DF60E08CE0C7DFC298F2
:1001600008951F93182F862F60E08064BFDF60E042
:10017000812F8068BBDF1F9108951F93CF93DF937A
:10018000182F1052C0E0D0E0812F9927FC01EE0F0C
:10019000FF1FEE0FFF1FE80FF91FE80FF91FEC0F0D
:1001A000FD1FE05AFF4F61E08081A0DF2196C6303D
:1001B000D10550F3DF91CF911F9108951F93CF93F5
:1001C000DF93182F1052C0E0D0E0812F9927FC0157
:1001D000EE0FFF1FEE0FFF1FE80FF91FE80FF91FCB
:1001E000EC0FFD1FE05AFF4F808161E080957EDFBC
:1001F0002196C630D10548F3DF91CF911F91089524
:10020000CF93DF93EA01ADDF8881882329F08991BC
:10021000B4DF88818823D9F7DF91CF910895CF93F8
:10022000DF93EA019EDF8881882329F08991C6DF68
:1002300088818823D9F7DF91CF91089560E08DE020
:1002400055DF089560E08CE051DF089584EA86BFB1
:1002500006B607FEFDCF81B19927887F9070883060
:10026000910511F0409719F481E090E0089580E045
:1002700090E0089584E986BF8DE08A95F1F70895AE
:10028000882311F084EC01C084E886BF06B607FE1F
:10029000FDCF81B19927887F90708035910531F02D
:1002A0008835910519F080E090E008958DE08A95F9
:1002B000F1F783B19927089583B9662311F084EC8F
:1002C00001C084E886BF06B607FEFDCF81B199273D
:1002D000887F907088329105E1F08932910534F47D
:1002E0008831910581F0809771F016C080349105B6
:1002F00069F0813491051CF4C09759F00DC0883421
:10030000910521F009C081E090E0089582E090E03D
:10031000089583E090E0089580E090E00895FF92D2
:100320000F931F93CF93DF938C0181E0F82EE801A8
:1003300022968CDF60E080E2BFDF60E08F2DBCDFC3
:1003400060E08981B9DF60E08881B6DF93DFF394F4
:10035000229681E18F1568F779DF60E080E2ACDFFB
:1003600060E0862FA9DF60E0F8018181A5DF60E011
:10037000F8018081A1DF7EDFDF91CF911F910F9186
:10038000FF900895CF92DF92EF92FF921F93182F64
:100390007B01C72EDD245ADF60E080E28DDF60E064
:1003A000812F8ADF60E08C2D87DF61E08E2D84DF76
:1003B00061DF1F91FF90EF90DF90CF9008950F9332
:1003C0001F93182F43DF60E080E276DF60E0812F2B
:1003D00073DF3CDF60E081E26FDF80E051DF082FF8
:1003E0001127102F002781E04BDF9927082B192BAD
:1003F00041DFC8018E549D4F1F910F910895825B7C
:1004000092409093B9028093B8022091BA02309141
:10041000BB023F7B30623093BB022093BA02BC0127
:1004200082E0B0DF6091BA027091BB0283E0AADF84
:100430008091B8029091B90292609093B902809332
:10044000B802BC0182E09EDF08951F93CF93DF9333
:10045000CDB7DEB725970FB6F894DEBF0FBECDBF80
:10046000FC0168EE73E00DD96983262F662319F429
:1004700080E2898302C0205D2983CF0164E670E0B9
:1004800000D9CB016AE070E0FCD8805D8A83CF019F
:100490006AE070E0F6D8CB016AE070E0F2D8805DE7
:1004A0008B8380910603909107036AE070E0E9D89E
:1004B000805D8C8310E31D8348ED52E062E080E0B4
:1004C0009FDE89815ADE8A8158DE8B8156DE4AEDB5
:1004D00052E062E08EE194DE8C814FDE8D814DDE54
:1004E0004CED52E062E0812F8BDE25960FB6F8943A
:1004F000DEBF0FBECDBFDF91CF911F9108950F9347
:100500001F93182F8091B6029091B702926090933A
:10051000B7028093B602BC0181E034DF2091BA02B9
:100520003091BB022F77387F012F1127F801E85750
:10053000FD4F808199279695982F882797958795C5
:10054000282B392B3093BB022093BA02B90183E0E8
:1005500019DF2091D0023091D1023F7002561D4F19
:10056000F80180819927982F88279295907F282BD2
:10057000392B3093D1022093D002B9018EE002DFF3
:100580008091B6029091B7029D7F9093B7028093BD
:10059000B602BC0181E0F6DE1F910F9108959FEF36
:1005A00097BB98BB80EE81BB92BB709A8DB1806582
:1005B0008DB987B38D6387BB10BE16BE80E480B94A
:1005C0007894B3DD0895CFE5D4E0DEBFCDBFE7DF9B
:1005D00080E793E0909307038093060384EB92E017
:1005E0009EDE84E18CDF809106039091070307DF94
:1005F00041EE52E060E0862F03DE80910603909189
:10060000070323DF4BEE52E065E080E008DE40EFB9
:1006100052E065E080E303DE80B399278C70907030
:10062000049709F03FC084EF91E04CDD84EF91E046
:1006300049DD80B399278C709070049799F540EF4D
:1006400052E065E080E3DCDD88EC90E03BDD8399FF
:1006500029C08091060390910703059790930703A3
:10066000809306038C56934030F488E394E0909393
:100670000703809306038091060390910703BFDE72
:100680008091060390910703E0DE88EC90E01ADD8C
:1006900088EC90E017DD839BFECF40EF52E065E0F1
:1006A00080E3BDDD80B399278C709070089709F0C6
:1006B000B3CF84EF91E006DD84EF91E003DD80B3FA
:1006C00099278C709070089709F0A6CF4BEE52E0F6
:1006D00065E080E095DD88EC90E0F4DC8091060335
:1006E0009091070305969093070380930603885320
:1006F000944030F08BE693E09093070380930603D9
:1007000080910603909107037ADE80910603909111
:1007100007039BDE88EC90E0D5DC88EC90E0D2DC2F
:10072000829BFECF4BEE52E065E080E074CFAFE0FD
:10073000B0E0ECE9F3E0DBC7EE24FF2487012C01F5
:100740007E876D876A011F86FC011782168283816E
:1007500081FD60C18FEF9FEF6EC18D859E850196F3
:100760009E878D879F85492F552740FF45C1862D40
:1007700080538A3008F44EC1262D332727FD30954B
:10078000283631056CF5253631050CF054C023357B
:10079000310509F46AC024353105B4F42B32310532
:1007A00009F438C12C3231054CF42032310509F4FA
:1007B00031C12332310509F42DC119C1C9018D9709
:1007C000029708F014C126C123363105B9F1243649
:1007D00031050CF055C02835310509F47EC007C13C
:1007E0002037310509F477C02137310584F42C36E0
:1007F0003105E9F02D3631052CF42936310509F49F
:100800003FC0F5C02F36310509F462C0F0C025376E
:10081000310509F464C02637310524F42337310546
:10082000A1F0E5C02837310509F457C0E0C0EF85D5
:10083000E460EF87EFC04FE3E42E99C0F60182E059
:1008400090E0C80ED91EE0808FC0F60182E090E0F3
:10085000C80ED91EA081B1817D01FD01019000204B
:10086000E9F731977E2E7A1A7FC0F60182E090E098
:10087000C80ED91E808191817C01C1D4782E74C0AC
:1008800042FF0AC0F60184E090E0C80ED91E208124
:100890003181428153810CC0F60182E090E0C80EA4
:1008A000D91E808191819C01442737FD4095542FAA
:1008B00079018A0157FF2BC09F8592609F87109511
:1008C0000095F094E094E11CF11C011D111D1FC066
:1008D00038E0732E04C028E7622E90E1792E42FFA3
:1008E0000AC0F60184E090E0C80ED91E2081318153
:1008F000428153810AC0F60182E090E0C80ED91E01
:10090000808191819C014427552779018A011E012C
:100910000894211C311C872C9924AA24BB24C801CB
:10092000B701A5019401C1D6DC01CB01F10180839F
:100930008A301CF0860D815201C0805DF1018193E7
:100940001F01C801B701A5019401AFD679018A0141
:10095000211531054105510511F7FF85F1FF04C04F
:10096000B2018DE290E0ABD483E6681631F48E2DAF
:10097000B201992787FD90953CC093E7691699F4D9
:100980007A94EFEF7E16B1F1F70180810894E11CB3
:10099000F11CB201992787FD909591D47A94FFEFCD
:1009A0007F1691F727C083E5681689F47A949FEF44
:1009B000791601F1F7018491B201992780D4089446
:1009C000E11CF11C7A94FFEF7F16A1F713C05E01C2
:1009D0000894A11CB11C2A143B0461F0F10182911E
:1009E0001F01B201992787FD909569D4F4CFB20118
:1009F000C90165D41F860EC0F5E26F1629F481E0A7
:100A00008F878AE0782E06C0B201862D992787FD50
:100A1000909555D4F201838183FF04C0ED85FE8556
:100A2000649003C0ED85FE856080662009F095CE58
:100A3000F20186819781E2E12F9675C6A2E4B0E0CB
:100A4000E3E2F5E054C6CC24DD2476011FAE1EAEF1
:100A50004C0178AF6FAB3A018EE0A7EFB2E0FE0138
:100A600031960D9001928A95E1F723961FAE239758
:100A70001BAE1AAE00E010E02FEF3FEF3DAF2CAF02
:100A8000F4011783068322961FAF0EAF229783814E
:100A900080FD7DC38FEF9FEFAEC34FA958AD4F5F71
:100AA0005F4F58AF4FAB23965FAD2397A52EBB2466
:100AB00040E2242E312C2A203B20A5FEB5C08EE535
:100AC000481641F40115110509F07FC0A6FC7DC050
:100AD000506421C19DE2491631F501151105A9F4B3
:100AE000842D869586958695FE013196E80FF11D39
:100AF00027E0422281E090E002C0880F991F4A94CB
:100B0000E2F72685282B268707C023963FAD23973B
:100B1000386023963FAF23970F5F1F4F38C3B40150
:100B2000C801FAD34CC04DE5441609F04EC001157A
:100B30001105B1F2A3FE03C08C8980628C8BA6FEE6
:100B40000EC0FE0131960FE110E086858095868704
:100B500001501040319617FFF8CF00E210E0A4FCDE
:100B600007C0F30182E090E0680E791EC080D1805A
:100B7000852D5A9418161CF5C4015ED38C019FEF85
:100B80000F3F1907E1F0202F802F869586958695D7
:100B9000FE01E80FF11D8785992787FD9095277045
:100BA00002C0959587952A95E2F780FFB8CFA4FCFF
:100BB000DFCFF60100830894C11CD11CD9CF239646
:100BC000EFAD2397E4FD88C2FFC0A3FE28C02396A3
:100BD000FFAD2397F77F2396FFAF23972EAD241504
:100BE000F0F4BE016F5F7F4F41E050E08EAD982F73
:100BF000969596959695FB01E90FF11D87709A01E0
:100C000002C0220F331F8A95E2F78685822B8687E2
:100C10008EAD9FAD01969FAF8EAF841538F3E42D56
:100C2000FF27FFAFEEAF5CCFA0FE7BC2F5E24F1611
:100C300041F423962FAD23972E7F23962FAF239732
:100C400099C2942D90539A3058F43FE7531611F4FB
:100C5000552404C08AE0589E502C1124590E97C286
:100C6000842D992787FD909588D5482E282F3327E6
:100C700027FD30952936310509F4BCC02A363105E7
:100C8000DCF42436310509F4B5C0253631057CF491
:100C90002B35310509F40FC22C35310524F42A32E5
:100CA000310569F119C223363105C9F115C228365B
:100CB00031050CF483C16BC22037310509F491C0B2
:100CC0002137310564F42E36310509F464C12F361D
:100CD00031050CF07CC02C363105C9F0FDC125373B
:100CE000310509F480C02637310524F42337310556
:100CF000E9F1F2C12837310509F473C0EDC123963B
:100D00004FAD2397406123964FAF239740C2239660
:100D10005FAD2397546023965FAF239738C2A4FC3E
:100D200007C0F30182E090E0680E791EC080D18098
:100D30009FE7591611F431E0532E852D5A94181659
:100D40000CF0CAC1C40178D28C01EFEF8F3F9E072F
:100D500009F42BC2A4FCF1CFF60180830894C11CD6
:100D6000D11CEBCFB401C801D7D229C0A4FC07C065
:100D7000F30122E030E0620E731EC080D180C40116
:100D80005BD28C01EBD4892BD1F73FEF0F3F1307D8
:100D900009F40BC2852D5A9418168CF4C801DED4C0
:100DA000892B01F7A4FC05C0F60100830894C11C3F
:100DB000D11CC40141D28C018F5F9F4F59F72396FC
:100DC0005FAD239754FD88C1F601108285C188E08C
:100DD00089AF23969FAD2397926023969FAF239769
:100DE00009C0E0E1E9AF2396FFAD2397F2602396B7
:100DF000FFAF2397C40120D28C01B0D4892BD1F747
:100E00002FEF0F3F120709F4D0C10D3211F00B3252
:100E1000A1F45A9415140CF0C8C10D3239F423967C
:100E20003FAD2397386023963FAF2397C40104D288
:100E30008C018F5F9F4F09F4B8C1003369F5CC2452
:100E4000DD2476015A9415140CF075C0C401F4D158
:100E50008C015FEF8F3F950709F46DC08ED4883702
:100E6000B1F48FE6481631F094E6491619F0E5E73B
:100E70004E1621F4B401C8014FD25DC0F0E1F9AFC4
:100E8000C401DAD18C018F5F9F4F31F454C039E631
:100E9000431611F448E049AFCC24DD247601C801A3
:100EA0006CD4C0979FAF8EAF8A30910544F0C19744
:100EB0009FAF8EAF97FD03C00A969FAF8EAF8EADEA
:100EC0009FAD97FD08C0E9AD8E2F99272EAD3FADA0
:100ED0002817390724F0B401C8011ED21FC089ADFC
:100EE000282F332744275527C701B601ABD36B0101
:100EF0007C01EEADFFADCF01AA2797FDA095BA2FDB
:100F0000C80ED91EEA1EFB1E5A9415143CF4C401E7
:100F100093D18C018F5F9F4F09F0C1CF23962FADE6
:100F2000239723FF08C0F094E094D094C094C11C90
:100F3000D11CE11CF11C23964FAD2397242F33279E
:100F400024FDCAC0C90186709070069731F4F30180
:100F500082E090E0680E791E0EC021FF06C0F3010A
:100F600022E030E0620E731E10C0C301029622FF21
:100F70000AC0F3013C010190F081E02DC082D182D2
:100F8000E282F382A9C0F3013C010190F081E02DDF
:100F9000D182C082A1C0A4FC9FC0F30142E050E016
:100FA000640E751EA081B181F401868197818D93B5
:100FB0009C9392C0B401C801AFD159C0C4013CD1C7
:100FC0008C01CCD3892BD1F7FFEF0F3F1F0709F41A
:100FD000ECC00D3211F00B3281F40D3239F423964E
:100FE0002FAD2397286023962FAF2397C40124D1D8
:100FF0008C018F5F9F4F09F4D8C02FE0C22ED12CF7
:10100000CC0EDD1E760196E3A92EB12CAC0EBD1ED2
:10101000CA14DB0460F5151454F5B801CE0101962D
:10102000F7D0892B39F2053611F0053481F41B868F
:10103000F70101937F01C401FFD08C01FFEF8F3FC7
:101040009F07A9F08D3231F08B3221F00CC00E32A7
:1010500009F41D86F70101937F01C401EDD08C01D5
:101060008F5F9F4F21F05A94EA14FB04A0F2F7011E
:10107000108260E070E0C6016DD1DC01CB016C0133
:101080007D012396FFAD2397F3FF04C0F7FAF09498
:10109000F7F8F094F30122E030E0620E731E019045
:1010A000F081E02DC082D182E282F38285E48B87D9
:1010B0008EE28D8711C023963FAD23973062239631
:1010C0003FAF239781013FAE2EAE80E2FE013F96F7
:1010D00011928A95E9F75BC0F40186819781229687
:1010E0002EAD3FAD22972817390774F423963FADF4
:1010F000239734FD06C04AAD5BAD4F5F5F4F5BAFDA
:101100004AAF1DAE1CAE09C05EE6451609F04DC0E3
:101110008FEF0F3F180709F448C023961FAE23979F
:1011200036C095E2491689F4E1E02396EFAF2397A4
:10113000FAE0F9AFF4010680F781E02D2296FFAFC7
:10114000EEAF22978FE7582E22C0842D992787FD76
:10115000909504D3892B71F0C4016ED08C01FED21E
:10116000892BD1F7FFEF0F3F1F07F9F0B401C8013A
:10117000D3D00DC0C40160D08C018F5F9F4FA9F008
:10118000842D992787FD90950817190771F4F401AC
:10119000838183FF04C0EFA9F8AD449003C0EFA999
:1011A000F8AD4080442009F078CC2396FFAD23971A
:1011B0002F2F332720FF13C0F401868197812296B9
:1011C0004EAD5FAD2297481759074CF424FD05C07A
:1011D0008AAD9BAD01969BAF8AAF1DAE1CAE0F5F73
:1011E0001F4F39F4EAADFBADEF2B19F48CAD9DAD7B
:1011F00002C08AAD9BADE2E1CE5BDF4F94C2FC0141
:1012000005900020E9F7809590958E0F9F1F089517
:10121000FC010190061629F00020D9F788279927AC
:1012200008953197CF0108957AE0979F902D879F79
:10123000802D910D11240895CF93DF93EC014B8104
:10124000842F992780FF2EC086FF09C04F7B4B83D8
:101250008E819F8101969F838E838A812CC082FF1D
:1012600011C0E881F9818081282F332727FD30952F
:101270002115310519F440624B8314C03196F9836E
:10128000E88313C0EA85FB85CE0109959C0197FF91
:101290000CC08B8199272F5F3F4F11F4806101C0F3
:1012A00080628B838FEF9FEF07C08E819F810196B5
:1012B0009F838E83822F9927DF91CF9108950F937B
:1012C0001F93CF93DF938C01EB018B81992781FFD3
:1012D0001CC082FF0DC02E813F818C819D8128170B
:1012E000390764F4E881F9810193F983E88306C042
:1012F000E885F985802F0995892B39F48E819F81A6
:1013000001969F838E83C80102C08FEF9FEFDF910C
:10131000CF911F910F910895AC01FB012381822F82
:10132000992780FF06C086FD04C08FEF4F3F580706
:1013300019F48FEF9FEF0895428320642F7D23835C
:1013400086819781019797838683842F99270895B3
:1013500077276627B0D0C82FD92F7F936F939D2E04
:101360008C2E09910032E9F30930D9F30637C9F31D
:101370000C30B9F30A30A9F30D3099F352D06ED086
:10138000EEF19ED017FB97F9C92ED82EE72EF62E38
:1013900088270062053651F4099143D04AD0992339
:1013A00019F017FD3CC035C017FD8195E6E2F0E06D
:1013B000182F9C2D8D2D7E2D6F2D9F7798178707C9
:1013C00076076105D9F01A0D3AF411957896912FA8
:1013D0009B19973224F504C0912F9B0D9732CCF4C2
:1013E0009C2D112359F0159538F476D0EF93FF9387
:1013F0009AD0FF91EF91F5CF3496F3CFEF91FF9113
:10140000E030EF0711F081929082ECE0CDB7DEB7CB
:1014100090C19C2D9F678FE77FEF6FEFEFCF7ED05E
:10142000EDCF11270B3219F00D3211F4106809912C
:10143000089588279927003384F011F415FF09C017
:101440000A335CF41062992321F4EEDE0F70800FF2
:10145000911D9D2E8C2E0991EECF089568945ED03B
:10146000BB24BA94AA240E3229F416FD23C01064BA
:10147000FEF01CC00033F4F019F4E89415FF11C01D
:101480000A33C4F410629F307CF4B394E894552777
:10149000442733272AE0D6D00F70600F711D811DBD
:1014A000911D16FDAA9402C016FFA3949D2E8C2EAA
:1014B0000991D9CF0895AA27BB27FF91EF911DC1AC
:1014C000E89403C097FB0EF489D0B62F672F782FCE
:1014D000892F9EE900240AC05591459135912591A7
:1014E00008959A95BB0F661F771F881F11249923B3
:1014F000A1F08823B2F79F3F59F0BB0F48F421F4C5
:10150000002011F460FF04C06F5F7F4F8F4F9F4F2B
:10151000881F9795879597F9089500C066277727C4
:1015200088279927089565D001D0E0CF992339F015
:10153000552329F09F575F57950F13F49AF1F1CF78
:1015400091589F3FE1F3629FA12D0F92BB27639FAC
:10155000A00DB11DEE27729FA00DB11DEE1FAF9320
:10156000AA27649FB00DE11D739FB00DE11DAA1F56
:101570006627829FB00DE11DA61F5527749FE00DC1
:10158000A11D551F839FE00DA11D561F849FA00D17
:10159000511D852F7A2F6E2F1F900F9088231AF4DC
:1015A000939539F423C0000C111CBB1F661F771FD5
:1015B000881F0128089597FB28D09F3738F0FEE94F
:1015C000F91B982F872F762F6B2F05C0A7CF9695E5
:1015D000879577956795F150D0F73EF49095809573
:1015E000709561957F4F8F4F9F4F08959FEF80ECCF
:1015F0000895052E092607FA440F551F5F3F79F01D
:10160000AA27A51708F051E04795880F991F9F3F1B
:1016100031F0BB27B91708F091E0879508959F91A5
:101620009F911124E3CF97FB880F991F9F3F31F0C3
:10163000BB27B91708F091E0879508959F919F9176
:101640001124D4CF629FD001739FF001829FE00DDF
:10165000F11D649FE00DF11D929FF00D839FF00D31
:10166000749FF00D659FF00D9927729FB00DE11DDD
:10167000F91F639FB00DE11DF91FBD01CF011124BA
:101680000895AA1BBB1B51E107C0AA1FBB1FA617C9
:10169000B70710F0A61BB70B881F991F5A95A9F71B
:1016A00080959095BC01CD010895A1E21A2EAA1B48
:1016B000BB1BFD010DC0AA1FBB1FEE1FFF1FA21702
:1016C000B307E407F50720F0A21BB30BE40BF50BFF
:1016D000661F771F881F991F1A9469F76095709588
:1016E000809590959B01AC01BD01CF0108952F928B
:1016F0003F924F925F926F927F928F929F92AF92A2
:10170000BF92CF92DF92EF92FF920F931F93CF93EE
:10171000DF93CDB7DEB7CA1BDB0B0FB6F894DEBF85
:101720000FBECDBF09942A88398848885F846E84AB
:101730007D848C849B84AA84B984C884DF80EE80F5
:10174000FD800C811B81AA81B981CE0FD11D0FB6FE
:10175000F894DEBF0FBECDBFED010895911113C007
:10176000803251F08A3041F08C3031F08D3021F0F0
:10177000893011F08B3099F708958F9309D08F91AC
:1017800009F08062089599278827089585FDFBCF89
:1017900080629111F8CF8136ECF38B37DCF7089536
:1017A0000000000000000000002F00000000070003
:1017B000070000147F147F1400242A7F2A1200627D
:1017C0006408132300364955225000000503000029
:1017D00000001C224100000041221C000014083EB1
:1017E00008140008083E0808000000A06000000877
:1017F00008080808000060600000002010080402CB
:10180000003E5149453E0000427F40000042615188
:101810004946002141454B31001814127F10002722
:1018200045454539003C4A494930000171090503E5
:1018300000364949493600064949291E0000363616
:101840000000000056360000000814224100001479
:101850001414141400004122140800020151090656
:1018600000324959513E007C1211127C007F4949D7
:101870004936003E41414122007F4141221C007F08
:1018800049494941007F09090901003E4149497A16
:10189000007F0808087F0000417F41000020404190
:1018A0003F01007F08142241007F40404040007FFC
:1018B000020C027F007F0408107F003E4141413E40
:1018C000007F09090906003E4151215E007F091988
:1018D00029460046494949310001017F0101003F85
:1018E0004040403F001F2040201F003F4038403F05
:1018F0000063140814630007087008070061514969
:10190000454300007F41410000552A552A550000FB
:1019100041417F0000040201020400404040404079
:10192000000001020400002054545478007F484411
:10193000443800384444442000384444487F003848
:101940005454541800087E0901020018A4A4A47C71
:10195000007F080404780000447D4000004080843B
:101960007D00007F102844000000417F4000007C83
:1019700004180478007C080404780038444444388F
:1019800000FC242424180018242418FC007C0804DB
:10199000040800485454542000043F444020003CB4
:1019A0004040207C001C2040201C003C4030403C3B
:1019B000004428102844001CA0A0A07C00446454CB
:1019C0004C441414141414140F0F0F0F0F0E0E0D9B
:1019D0000D0B0A0907060605050303020100000CAA
:1019E0000D0E0F0E0F0E0F0F0F0F0F0E0F0E0F0E0F
:1019F0000F0F0F0FFFFF155BB9F412800004AA2828
:101A00000044E71E41717D00CE82554F0C9745B8CA
:101A10002DFC9780A1046ADF20002E00204D485A3B
:101A200000464D2053544552454F0020555020004C
:101A300020444F574E20003031323334353637385A
:061A40003945652E00008F
:00000001FF
