:02000000482E88
:100006002400141910281F301605F1007108003A53
:0E001600031D10280130F0001128F001080031
:060024002400161508007F
:10002A002000911124009615200091191D281928E5
:10003A0024001108F10021002C08003A031D282889
:10004A00240096162A2824009612200091112400D2
:10005A0016162000911932282E287108F00008007F
:0C006A0024009614961C3A283728080041
:100076002000911121002C0824009100141D442811
:10008600412820009119482844282400161B4D2891
:0C009600F001502816150230F0000800A0
:1000A2002100AC01AD012D08123C031D5A282C0879
:1000B2008E3C031C662803207008031961286628F9
:1000C2002100AC0A0319AD0A5428210012302D0276
:1000D200031D6D288F302C02031C72287B30F00028
:1000E200782824001614161C77287428F0010800BA
:1000F200512020302100AC003B2021002908AC0017
:100102003B20003021002A05F3002B08FF39F400C0
:100112007408F000F1017008AC003B20FF302100B0
:0A0122002A05AC003B201220080063
:10012C002100AA01512020302100AC003B202100ED
:10013C002908AC003B20352021302100AC003B20AD
:10014C0001302100AC00152070082100AA00AC0180
:10015C00152021002A08F300F2010030F10072088A
:08016C00F0077308F13D0800E3
:10017400210026080319D5282408A900962025085B
:10018400F4000130F2000030F30074080319CE28A3
:10019400F235F30DFF3EC82872087004A7007108F9
:1001A4007304A800ED282408A90096202508F4006B
:1001B4000130F2000030F30074080319E528F23529
:1001C400F30DFF3EDF28F209F30972087005A7005A
:1001D40071087305A8002408A9002708AA002808A4
:0601E400AB0079200800C9
:1001EA0000302100A1000030A200A3012008031959
:1001FA0008290B30A900962005307004A100710867
:10020A008038A20011290B30A9009620FA30700517
:10021A00A10071087F39A2000B30A9002108AA00A9
:10022A002208AB00792002302100A4000930A50081
:10023A000130A600BA20003021002206031D27291A
:10024A0000302106031D34291330A90096202030DE
:10025A007005A1007108A2000030A2052029123001
:10026A00A900962000307005F3007108FE39F400E9
:10027A000930F2007308F0007408F10072080319DB
:10028A004A29F136F00CFF3E44297008A3000230D7
:10029A00A4000930A500A601BA2021002308F00015
:0202AA0008004A
:1002AC0013302100A900962080307005F3007108EE
:1002BC00FF39F4000730F2007308F0007408F10005
:1002CC00720803196D29F136F00CFF3E6729B23024
:0802DC00F0070230F13D0800BB
:1002E4000630FC002B30FD00FD0B7629FC0B762933
:0202F400080000
:1002F60020008C108030F300F201083072020318DF
:100306009629730821002005F1007108003A031DA3
:100316008F2920008C13912920008C178C148C10A7
:08032600F336F20A80290800F9
:10032E0023009E189C2900009729200069082300AD
:04033E009A00080019
:100342002000F801F9011030FC00710DF80DF90DD3
:100352007408F8027508031C750FF9020318B8290E
:100362007408F80775080318750FF9070310F00DE4
:08037200F10DFC0BA6290800A7
:10037A0020000C1069082100A0007B216A082100D6
:08038A00A0007B210C14080007
:1003920020006908643A031DD62903302100A40015
:1003A2000F30A500A601BA20E32920006908753A9A
:1003B200031DE32903302100A4000F30A500013002
:0603C200A600BA200800AD
:1003C80000302000EC000030ED0002302100A400D5
:1003D8000930A500A601BA2003302100A4000E3080
:1003E800A500A601BA205621B23070022000EA000A
:1003F8000230713BEB0002302100A900962000304A
:10040800F005FE30F10570082000EC007108ED00E1
:100418006A08F0046B08F1047008EC007108ED003C
:1004280002302100A9007008AA007108AB007920E9
:100438002100A001F52070082000E900013021000A
:10044800A000F5207008200069020318422A0B302A
:100458002100A4000230A5000130A600BA200B300C
:100468002100A400A5010130A600BA200B3021000C
:10047800A4000F30A500A601BA20572A0B3021008E
:10048800A4000230A500A601BA200B302100A40068
:10049800A501A601BA200B302100A4000F30A50049
:1004A8000130A600BA2002302100A4000930A500BE
:1004B8000130A600BA20003020006D06031D662A10
:1004C80000306C06031D752A13302100A900962000
:1004D800203070052000EC007108ED000030ED05BB
:0404E8005F2A08007F
:1004EC002000EF016B08F1000130F00071080319D6
:1004FC00822AF035FF3E7D2A7008EE0069088400E0
:10050C006A08850070080005F10071080130031DB0
:10051C000030F0006D08F0060319AE2A6C08003CA0
:10052C0003189C2A72217221EC03942A6908840016
:10053C006A0885006E080005F10071080130031D82
:10054C000030F0006D08F0060319AE2AFF30EF0002
:06055C006F08F00008002A
:100562002000690823009100920120006A082300FC
:1005720093001513951315150B08F0008B135530C6
:100582009600AA3096009514F01BC92A8B13CA2A2A
:0C0592008B171511951CCE2ACB2A0800EF
:10059E0020000C1006302100A0007B21E830F40072
:1005AE000330F5006208F0006308F100A1210A3063
:1005BE00F4000030F500A1217808F0007908F10070
:1005CE007008E40070080319F12A64082100A000E5
:1005DE007B21F52A0F302100A0007B210C140C107A
:1005EE0005302100A0007B216430F4000030F500BE
:1005FE006208F0006308F100A1210A30F400003017
:10060E00F500A1217808F0007908F10070082100AA
:10061E00A0007B210C140C1004302100A0007B21C3
:10062E000A30F4000030F5006208F0006308F100B3
:10063E00A1210A30F4000030F500A1217808F00065
:10064E007908F100803070042100A0007B210C1489
:10065E000C1003302100A0007B210A30F400003082
:10066E00F5006208F0006308F100A1217808F0009F
:10067E007908F10070082100A0007B210C140800FD
:10068E002000E90100306205F3006308FF39F40031
:10069E007408F000F1017008EA00B1220130200068
:0C06AE00E900FF306205EA00B1220800FC
:1006BA0000302000E5000030E60002302100A400EE
:1006CA000930A500A601BA2003302100A4000E308B
:1006DA00A500A601BA2020006208E900C92103305A
:1006EA002100A4000E30A5000130A600BA20003077
:1006FA0020006606031D832B00306506031D922B1E
:10070A0013302100A9009620203070052000E50052
:10071A007108E6000030E6057C2B13302100A900A1
:10072A00962010307005F2007108F3000030F305CE
:10073A0072082000E5007308E60000307306031D06
:10074A00A82B003072060319AB2BE4215621B230D4
:10075A0070022000E3000230713BE4000230210005
:10076A00A90096200030F005FE30F105700820003F
:10077A00E5007108E6006308F0046408F1047008F3
:10078A00E5007108E60002302100A9007008AA00FD
:0A079A007108AB0079205621080019
:1007A40020006208E300003062020318DB2BE3013F
:1007B400E12B6308123C0318E12B1230E3006308B9
:1007C400F000F101F035F10DF4307007840086304B
:1007D400713D85000008E80003302100A90096203F
:1007E4007F3070052000E4007108F839E5000F300F
:1007F4006805F3000730F2007308F000F101720895
:100804000319082CF035F10DFF3E022C7008E404A6
:100814007108E5040E302100A9009620FF30700510
:100824002000E60071080F39E700F0306805F30096
:100834007308F100F0017008E6047108E70403305E
:100844002100A900200064082100AA0020006508F6
:100854002100AB0079200E302100A9002000660899
:100864002100AA00200067082100AB0079200800BD
:1008740009302000E900EA01BD210130E20009301D
:10088400620203184B2C6208E900EA01BD21E20A66
:10089400412C0730E9007730EA00BD210630E90039
:1008A4000530EA00BD210530E9003030EA00BD2101
:1008B4000430E9007E30EA00BD210330E900303025
:1008C400EA00BD210230E9007E30EA00BD217A3021
:1008D400FB00C130FC008130FD00FD0B6F2CFC0BD4
:1008E4006F2CFB0B6F2C000000000930E900FF3077
:1008F400EA00BD210130E200093062020318892CAC
:100904006208E9000F30EA00BD21E20A7E2C0800EB
:10091400B23020006202F1000230633BF200710841
:10092400E4007208E50000307202031D9B2CB9300C
:1009340071020318A12CB930E400E501AD2C65085F
:10094400013C031DA72C6408863C0318AD2C86309B
:10095400E4000130E50002302100A4000930A500C4
:10096400A601BA2002302100A900962000307005AB
:10097400AA007108FE39AB00200064082100AA0413
:10098400200065082100AB040230A9007920023060
:100994002100A4000930A5000130A600BA200800F7
:1009A40001302000E200123062020318F22C6208C7
:1009B4002100A90020006208F000F101F035F10DDA
:1009C4001A30700784008730713D850000082100CB
:1009D400AA0001310008AB0079202000E20AD52CDE
:1009E4002100A901FB30AA00FF30AB0079200800E8
:1009F4002000E6010530660203180A2D6608640724
:100A040086000030653D870020308100E60AFC2C1A
:100A14006608640786000030653D87008101E603AF
:100A240066086407E7000030653DE8000A30F4001A
:100A3400F5016208F0006308F100A1217808F000D4
:100A44007908F1003030F0076708860068088700ED
:100A5400700881000A30F400F5016208F0006308B0
:100A6400F100A1217008E2007108E3000030710672
:100A7400031D3E2D00307006031D412D432DE6035A
:040A8400122D080027
:100A880097302000C4000130C5006930C60000302E
:100A9800C700FF30C000FF30C1000030C200003086
:100AA800C300FF30CC00FF30CD000030CE00003056
:100AB800CF00FF30C800FF30C9000030CA00003046
:100AC800CB0023009E1690309D0021008D140D113F
:100AD8002000911E732D23001908F0006C2D0800CA
:100AE8002000620823009100920195131513151434
:060AF8001308F0000800E5
:100AFE002000E50162088400630885000008E40018
:100B0E006408003A0319992D6408E9009721200022
:100B1E00E50A6508620784000030633D8500000821
:060B2E00E400872D080021
:100B340012001E00F003031D9A2DF103031D9A2DCC
:020B44000800A7
:100B46000C302000E9000030EA000230EB000A30E9
:100B5600EC000130ED00762270080319B32D501514
:100B6600501DC42D0C30E9000030EA000230EB00C5
:100B76000A30EC00ED01762270080319C42DD0145A
:100B860050110C30E9000030EA000330EB000A3067
:100B9600EC000130ED00762270080319D32D5016B3
:100BA600501EE42D0C30E9000030EA000330EB0063
:100BB6000A30EC00ED01762270080319E42DD015F9
:100BC60050120C30E9000030EA000430EB000A3025
:100BD600EC000130ED00762270080319F32D501554
:100BE600501D042E0C30E9000030EA000430EB0002
:100BF6000A30EC00ED01762270080319042E501419
:040C06005011080081
:100C0A0024001413941321008D140D163830240077
:040C1A009500080039
:100C1E000C302000E9000130EA00BD210930E90066
:100C2E00FF30EA00BD210A30E9006308EA00BD2169
:100C3E000B30E9006208EA00BD210F30E9000130F7
:100C4E00EA00BD210930FB001E30FC00E430FD003F
:100C5E00FD0B2F2EFC0B2F2EFB0B2F2E00000F301B
:100C6E00E900EA01BD210130E400093064020318F5
:100C7E00472E6408E9000F30EA00BD21E40A3C2E3D
:020C8E0008005C
:100C90006A2723008C018D0121008C018D010C1528
:100CA0008C150C16F03099003430FC00F130FD004A
:100CB000FD0B582EFC0B582E0000000023009F1542
:100CC00040309B0003309C001E154425503024000A
:100CD000920005262930FB009630FC007F30FD0095
:100CE000FD0B702EFC0B702EFB0B702E07302000BE
:100CF000E2000830E3000F262030E2000030E3007D
:100D00007F25E201742570082000E100E001013038
:100D1000E2007425700820006007AE000030613DDD
:100D2000AF00D22412302000E200D2233A242E0851
:100D3000E2002F08E3008A24562170082000E20018
:100D40007108E300CF22562170082000E2007108EC
:100D5000E3005130E4000030E500FA243330E200D3
:100D60000030E3007F255130E2000030E3007F25B2
:100D70003030E2000030E3007F25D0105010D01159
:100D80005017A325D01ECB2E2E08E2002F08E3001B
:100D900047232000D012501CDD2E7530E2005D2369
:100DA000562170082000AE007108AF007008E20004
:100DB0007108E300CF225010D016D01DEF2E643002
:100DC000E2005D23562170082000AE007108AF00DC
:100DD0007008E2007108E300CF22D011D016C12EB6
:020DE000F02EF3
:100ED4003E308400873085002030F0000130F1007E
:0C0EE40020308600003087009A250800AE
:100DE8000F340034CF340034DF340034FF3400349F
:100DF800CB340034DB340034FB340034FA340034B0
:100E0800F9340034F8340034F7340034D63400347C
:100E1800E6340034F6340034E3340034F334003478
:0C0E2800F2340034F1340034F0340034B3
:100E3400FB34FF3415345B34B934D0341034A0346B
:100E440080340734AB34283400346434E7341E343B
:100E5400413471347D340034C634823455344E34D4
:100E64000C3497344534B8342D34FC3497348034FE
:080E7400A13404346134DF34C1
:100E7C000D340A344134523431343034313430345A
:0C0E8C00203446344D340D340A34003458
:040E98007334033478
:060E9C000D340A3400349D
:100EA2004634523445345134553445344E34433447
:0A0EB200593420343D34203400345C
:040EBC000B340034BF
:040EC0000B340F34AC
:040EC4000B340234B5
:040EC80003340E34AD
:040ECC0003340F34A8
:040ED00002340934AB
:020000040001F9
:04000E00E40F1317D1
:00000001FF
